{
  "_format": "hh-sol-artifact-1",
  "contractName": "WavePortal",
  "sourceName": "contracts/WavePortal.sol",
  "abi": [
    {
      "inputs": [],
      "stateMutability": "payable",
      "type": "constructor"
    },
    {
      "anonymous": false,
      "inputs": [
        {
          "indexed": true,
          "internalType": "address",
          "name": "from",
          "type": "address"
        },
        {
          "indexed": false,
          "internalType": "uint256",
          "name": "timestamp",
          "type": "uint256"
        },
        {
          "indexed": false,
          "internalType": "string",
          "name": "message",
          "type": "string"
        }
      ],
      "name": "NewWave",
      "type": "event"
    },
    {
      "inputs": [],
      "name": "getAllWaves",
      "outputs": [
        {
          "components": [
            {
              "internalType": "address",
              "name": "waver",
              "type": "address"
            },
            {
              "internalType": "string",
              "name": "message",
              "type": "string"
            },
            {
              "internalType": "uint256",
              "name": "timestamp",
              "type": "uint256"
            }
          ],
          "internalType": "struct WavePortal.Wave[]",
          "name": "",
          "type": "tuple[]"
        }
      ],
      "stateMutability": "view",
      "type": "function"
    },
    {
      "inputs": [],
      "name": "getTotalAmountOfWaves",
      "outputs": [
        {
          "internalType": "uint256",
          "name": "",
          "type": "uint256"
        }
      ],
      "stateMutability": "view",
      "type": "function"
    },
    {
      "inputs": [
        {
          "internalType": "string",
          "name": "_message",
          "type": "string"
        }
      ],
      "name": "wave",
      "outputs": [],
      "stateMutability": "nonpayable",
      "type": "function"
    }
  ],
  "bytecode": "0x60806040526200004f6040518060400160405280601981526020017f57617665506f7274616c206f6e2074686520776179206d616e000000000000008152506200005560201b620006351760201c565b620001e9565b620000f5816040516024016200006c919062000162565b6040516020818303038152906040527f41304fac000000000000000000000000000000000000000000000000000000007bffffffffffffffffffffffffffffffffffffffffffffffffffffffff19166020820180517bffffffffffffffffffffffffffffffffffffffffffffffffffffffff8381831617835250505050620000f860201b60201c565b50565b60008151905060006a636f6e736f6c652e6c6f679050602083016000808483855afa5050505050565b60006200012e8262000186565b6200013a818562000191565b93506200014c818560208601620001a2565b6200015781620001d8565b840191505092915050565b600060208201905081810360008301526200017e818462000121565b905092915050565b600081519050919050565b600082825260208201905092915050565b60005b83811015620001c2578082015181840152602081019050620001a5565b83811115620001d2576000848401525b50505050565b6000601f19601f8301169050919050565b6110ee80620001f96000396000f3fe608060405234801561001057600080fd5b50600436106100415760003560e01c8063449d46c014610046578063bd43a90814610062578063eb885a1a14610080575b600080fd5b610060600480360381019061005b919061093a565b61009e565b005b61006a610499565b6040516100779190610ba3565b60405180910390f35b6100886105ea565b6040516100959190610ca7565b60405180910390f35b42601e600360003373ffffffffffffffffffffffffffffffffffffffff1673ffffffffffffffffffffffffffffffffffffffff168152602001908152602001600020546100eb9190610db9565b1061012b576040517f08c379a000000000000000000000000000000000000000000000000000000000815260040161012290610c47565b60405180910390fd5b42600360003373ffffffffffffffffffffffffffffffffffffffff1673ffffffffffffffffffffffffffffffffffffffff1681526020019081526020016000208190555060016000808282546101819190610db9565b925050819055506101c76040518060400160405280600c81526020017f2520686173207761766564210000000000000000000000000000000000000000815250336106ce565b600260405180606001604052803373ffffffffffffffffffffffffffffffffffffffff16815260200183815260200142815250908060018154018082558091505060019003906000526020600020906003020160009091909190915060008201518160000160006101000a81548173ffffffffffffffffffffffffffffffffffffffff021916908373ffffffffffffffffffffffffffffffffffffffff160217905550602082015181600101908051906020019061028692919061082f565b50604082015181600201555050606460015442446102a49190610db9565b6102ae9190610db9565b6102b89190610ef0565b6001819055506102ff6040518060400160405280601681526020017f52616e646f6d20232067656e6572617465643a2025640000000000000000000081525060015461076a565b60326001541015610446576103496040518060400160405280601481526020017f252068617320776f6e20746865207072697a6521000000000000000000000000815250336106ce565b6000655af3107a4000905047811115610397576040517f08c379a000000000000000000000000000000000000000000000000000000000815260040161038e90610c67565b60405180910390fd5b60003373ffffffffffffffffffffffffffffffffffffffff16826040516103bd90610b8e565b60006040518083038185875af1925050503d80600081146103fa576040519150601f19603f3d011682016040523d82523d6000602084013e6103ff565b606091505b5050905080610443576040517f08c379a000000000000000000000000000000000000000000000000000000000815260040161043a90610c87565b60405180910390fd5b50505b3373ffffffffffffffffffffffffffffffffffffffff167f5f7e16dc676677766a70e9c5628aa6c54ddb8b6e5188e2ae1e1f17f1ffbea716428360405161048e929190610cc2565b60405180910390a250565b60606002805480602002602001604051908101604052809291908181526020016000905b828210156105e157838290600052602060002090600302016040518060600160405290816000820160009054906101000a900473ffffffffffffffffffffffffffffffffffffffff1673ffffffffffffffffffffffffffffffffffffffff1673ffffffffffffffffffffffffffffffffffffffff16815260200160018201805461054690610e8d565b80601f016020809104026020016040519081016040528092919081815260200182805461057290610e8d565b80156105bf5780601f10610594576101008083540402835291602001916105bf565b820191906000526020600020905b8154815290600101906020018083116105a257829003601f168201915b50505050508152602001600282015481525050815260200190600101906104bd565b50505050905090565b600061062d6040518060400160405280601781526020017f5765206861766520256420746f74616c2077617665732100000000000000000081525060005461076a565b600054905090565b6106cb816040516024016106499190610bc5565b6040516020818303038152906040527f41304fac000000000000000000000000000000000000000000000000000000007bffffffffffffffffffffffffffffffffffffffffffffffffffffffff19166020820180517bffffffffffffffffffffffffffffffffffffffffffffffffffffffff8381831617835250505050610806565b50565b61076682826040516024016106e4929190610be7565b6040516020818303038152906040527f319af333000000000000000000000000000000000000000000000000000000007bffffffffffffffffffffffffffffffffffffffffffffffffffffffff19166020820180517bffffffffffffffffffffffffffffffffffffffffffffffffffffffff8381831617835250505050610806565b5050565b6108028282604051602401610780929190610c17565b6040516020818303038152906040527f9710a9d0000000000000000000000000000000000000000000000000000000007bffffffffffffffffffffffffffffffffffffffffffffffffffffffff19166020820180517bffffffffffffffffffffffffffffffffffffffffffffffffffffffff8381831617835250505050610806565b5050565b60008151905060006a636f6e736f6c652e6c6f679050602083016000808483855afa5050505050565b82805461083b90610e8d565b90600052602060002090601f01602090048101928261085d57600085556108a4565b82601f1061087657805160ff19168380011785556108a4565b828001600101855582156108a4579182015b828111156108a3578251825591602001919060010190610888565b5b5090506108b191906108b5565b5090565b5b808211156108ce5760008160009055506001016108b6565b5090565b60006108e56108e084610d17565b610cf2565b9050828152602081018484840111156108fd57600080fd5b610908848285610e4b565b509392505050565b600082601f83011261092157600080fd5b81356109318482602086016108d2565b91505092915050565b60006020828403121561094c57600080fd5b600082013567ffffffffffffffff81111561096657600080fd5b61097284828501610910565b91505092915050565b60006109878383610b20565b905092915050565b61099881610e0f565b82525050565b6109a781610e0f565b82525050565b60006109b882610d58565b6109c28185610d7b565b9350836020820285016109d485610d48565b8060005b85811015610a1057848403895281516109f1858261097b565b94506109fc83610d6e565b925060208a019950506001810190506109d8565b50829750879550505050505092915050565b6000610a2d82610d63565b610a378185610d97565b9350610a47818560208601610e5a565b610a5081610fdd565b840191505092915050565b6000610a6682610d63565b610a708185610da8565b9350610a80818560208601610e5a565b610a8981610fdd565b840191505092915050565b6000610aa1602783610da8565b9150610aac82610fee565b604082019050919050565b6000610ac4602583610da8565b9150610acf8261103d565b604082019050919050565b6000610ae7600083610d8c565b9150610af28261108c565b600082019050919050565b6000610b0a601183610da8565b9150610b158261108f565b602082019050919050565b6000606083016000830151610b38600086018261098f565b5060208301518482036020860152610b508282610a22565b9150506040830151610b656040860182610b70565b508091505092915050565b610b7981610e41565b82525050565b610b8881610e41565b82525050565b6000610b9982610ada565b9150819050919050565b60006020820190508181036000830152610bbd81846109ad565b905092915050565b60006020820190508181036000830152610bdf8184610a5b565b905092915050565b60006040820190508181036000830152610c018185610a5b565b9050610c10602083018461099e565b9392505050565b60006040820190508181036000830152610c318185610a5b565b9050610c406020830184610b7f565b9392505050565b60006020820190508181036000830152610c6081610a94565b9050919050565b60006020820190508181036000830152610c8081610ab7565b9050919050565b60006020820190508181036000830152610ca081610afd565b9050919050565b6000602082019050610cbc6000830184610b7f565b92915050565b6000604082019050610cd76000830185610b7f565b8181036020830152610ce98184610a5b565b90509392505050565b6000610cfc610d0d565b9050610d088282610ebf565b919050565b6000604051905090565b600067ffffffffffffffff821115610d3257610d31610fae565b5b610d3b82610fdd565b9050602081019050919050565b6000819050602082019050919050565b600081519050919050565b600081519050919050565b6000602082019050919050565b600082825260208201905092915050565b600081905092915050565b600082825260208201905092915050565b600082825260208201905092915050565b6000610dc482610e41565b9150610dcf83610e41565b9250827fffffffffffffffffffffffffffffffffffffffffffffffffffffffffffffffff03821115610e0457610e03610f21565b5b828201905092915050565b6000610e1a82610e21565b9050919050565b600073ffffffffffffffffffffffffffffffffffffffff82169050919050565b6000819050919050565b82818337600083830152505050565b60005b83811015610e78578082015181840152602081019050610e5d565b83811115610e87576000848401525b50505050565b60006002820490506001821680610ea557607f821691505b60208210811415610eb957610eb8610f7f565b5b50919050565b610ec882610fdd565b810181811067ffffffffffffffff82111715610ee757610ee6610fae565b5b80604052505050565b6000610efb82610e41565b9150610f0683610e41565b925082610f1657610f15610f50565b5b828206905092915050565b7f4e487b7100000000000000000000000000000000000000000000000000000000600052601160045260246000fd5b7f4e487b7100000000000000000000000000000000000000000000000000000000600052601260045260246000fd5b7f4e487b7100000000000000000000000000000000000000000000000000000000600052602260045260246000fd5b7f4e487b7100000000000000000000000000000000000000000000000000000000600052604160045260246000fd5b6000601f19601f8301169050919050565b7f7761697420666f72203330207365636f6e6473206265666f726520776176696e60008201527f6720616761696e00000000000000000000000000000000000000000000000000602082015250565b7f547279696e6720746f207769746864726177206d6f7265207468616e20796f7560008201527f2068617665000000000000000000000000000000000000000000000000000000602082015250565b50565b7f5769746864726177616c206661696c656400000000000000000000000000000060008201525056fea2646970667358221220c40d52a2583ee7dcf6e0b957316e87de197ca87d1e5b0eed7eecbedabd43969b64736f6c63430008040033",
  "linkReferences": {},
  "deployedLinkReferences": {}
}